:020000040800F2
:10000000280A0020ED010008F75C0008972D000881
:10001000F55C000821160008996000080000000047
:10002000000000000000000000000000FB5C000871
:100030002316000800000000F95C0008FD5C0008C1
:10004000070200080702000807020008070200086C
:10005000070200080702000807020008070200085C
:10006000070200080702000807020008070200084C
:10007000070200080702000807020008070200083C
:10008000070200080702000807020008070200082C
:10009000070200080702000807020008070200081C
:1000A000070200080702000807020008070200080C
:1000B00007020008070200080702000807020008FC
:1000C00007020008070200080702000807020008EC
:1000D0000702000881600008070200088D60000820
:1000E00007020008070200080702000807020008CC
:1000F00007020008070200080702000807020008BC
:1001000007020008070200080702000807020008AB
:10011000070200080702000807020008070200089B
:10012000070200080702000807020008070200088B
:1001300000F002F800F04AF80AA090E8000C8244AF
:100140008344AAF10107DA4501D100F03FF8AFF28C
:10015000090EBAE80F0013F0010F18BFFB1A43F0A5
:1001600001031847DC830000FC830000103A24BF21
:1001700078C878C1FAD8520724BF30C830C144BF0C
:1001800004680C607047000000230024002500264E
:10019000103A28BF78C1FBD8520728BF30C148BFEA
:1001A0000B607047662906F08085642900F0528054
:1001B000002070471FB500F08BFC040000200021D8
:1001C00006F068F8E0601FBD10B510BD00F080FDBE
:1001D0001146FFF7EFFF05F0BDFF00F09EFD03B4F1
:1001E000FFF7F2FF03BC00F0E1FD00000948804783
:1001F00009480047FEE7FEE7FEE7FEE7FEE7FEE709
:10020000FEE7FEE7FEE7FEE704480549054A064B20
:10021000704700007B5D00083101000828040020C1
:10022000280A002028060020280600200FB41CB54C
:10023000074B06AA7B4469460090059800F0FDFB39
:100240000020694600F00CFC1CBC5DF814FB0000AB
:10025000290800002DE9F0410646002410687529A0
:10026000314616A510D0AFF30080002802DA4042D4
:1002700013A507E031688A0701D512A502E04907F6
:1002800004D511A5012401E0AFF3008000210A226A
:1002900006F1240709E0B0FBF2FCB0FBF2F302FB2D
:1002A0001C00303078541846491C0028F3D12346EE
:1002B0002A463046BDE8F04100F052B90000000087
:1002C0002D0000002B000000200000002DE9F04769
:1002D0004FF0000A89460446C0F820A02046E16895
:1002E0008847002876D0252806D0D4E901219047F8
:1002F000206A401C2062F1E7E1682046002688471A
:10030000C4F81CA005460027C4F818A02A2D09D05F
:10031000284605F0E6FE38B304EB8708303DC8F800
:10032000185019E059F8041B204604EB870291612C
:10033000E1688847012F054618D1E069002820DAD6
:1003400026F020061DE0D8F8180000EB800005EB31
:1003500040003038C8F818002046E1688847054654
:1003600005F0BFFE0028EED1012F0AD02E2D08D1B6
:100370002046E16888477F1C0546022F46F020068C
:10038000C4DBA069002803DA404246F00106A06100
:10039000F00701D026F010066C2D0AD0682D08D089
:1003A0004C2D39D06A2D35D0742D35D07A2D33D0DF
:1003B00016E0E1682F4620468847B84205460AD134
:1003C0006C2F27D04FF48060E168064320468847B1
:1003D000054605E027E06C2F1AD04FF480700643E5
:1003E0000DB3A5F14100192802D8203546F4006666
:1003F0004A462946204626604E46FFF7D3FE80B186
:1004000001280BD0F61D26F0070000F1080965E76A
:100410004020E4E78020D7E70020D5E706F1040973
:100420005CE7284661E7206ABDE8F08710B5431C09
:1004300002E010F8011B71B18107FAD14FF00132CF
:1004400002C88C1A8C4314EAC211F9D0C01A0A06E9
:1004500003D0C01E10BDC01A10BD0A0401D0801EFA
:1004600010BD0902FCD0401E10BD421E12F8013F13
:10047000002BFBD111F8013B002B02F8013BF9D115
:100480007047032A40F2308010F0030C00F0158012
:1004900011F8013BBCF1020F624498BF11F801CB87
:1004A00000F8013B38BF11F8013BA2F1040298BFEC
:1004B00000F801CB38BF00F8013B11F0030300F056
:1004C000D482083AC0F0088051F8043B083A51F849
:1004D00004CBA0E80810F5E7121D5CBF51F8043BFF
:1004E00040F8043BAFF30080D20724BF11F8013B72
:1004F00011F801CB48BF11F8012B24BF00F8013BD4
:1005000000F801CB48BF00F8012B70474FF0000204
:1005100000B5134694469646203922BFA0E80C50F9
:10052000A0E80C50B1F12001BFF4F7AF090728BFD4
:10053000A0E80C5048BF0CC05DF804EB890028BF50
:1005400040F8042B08BF704748BF20F8022B11F079
:10055000804F18BF00F8012B7047704770477047F5
:100560002DE9F0470D4699469246044600F12408CD
:100570000168880604D5E06921F01001216000E0DF
:100580000120A84201DD471B00E00027A1697A197C
:1005900002EB0900081AA0612078C00602D42046A8
:1005A000AFF30080002608E0D4E901211AF8060024
:1005B0009047206A401C761C20624E45F4DB207870
:1005C000C0060AD52046AFF3008006E0D4E9012139
:1005D00030209047206A401C2062381EA7F1010796
:1005E000F4DC07E0D4E9012118F805009047206AFF
:1005F000401C2062281EA5F10105F3DC2046AFF364
:1006000000802078000602D50220BDE8F087012096
:10061000FBE770472DE9FF4F0C461E464FF0FF37B2
:100620008BB0D2E90001DDF860800A908A46C1F300
:100630000A5505B93D46002108464FF00000BAF1C1
:10064000000F00F4400005DA00EB80004FF4400199
:1006500001EA50004FEA9059B9F1010F00DDB946A7
:100660000A9850EA4A000ED044F61050A5F2FF3521
:1006700045432F14B8F1000F1ED07542291E1EDD10
:10068000C9F100021CE0B8F1010F4FF0000001D0E9
:10069000302103E0F24305E02154401CB042FBDB73
:1006A00030460022002121540B99C1F80880C1E98D
:1006B00000200FB0BDE8F08FBD1B6D1CDEE74A4681
:1006C00000DA694206A800F08DFA06AB93E807004D
:1006D00003AB83E8070050460A9900F06EFB8DE8F3
:1006E0000700A0F500501F3800900398002D0ADD88
:1006F00042F21F014A460844002303A903906846BA
:1007000000F0D7FD09E0A0F500504A461F3800234D
:1007100003A90390684600F0E1FD8DE8070000049E
:10072000000C03D04FF0FF30410800E01046B8F154
:10073000000F03D00022009215461EE0751E05D45E
:1007400000F0CAF9303262556D1EF9D5B346012268
:10075000084302D000227F1C04E02078302801D119
:1007600000227F1E002A099784D01DE0112D07DA90
:1007700000F0B2F9303262556D1C50EA0102F5D139
:10078000084302D00098C8B10EE00021681E05E0C1
:10079000235C625C63542254401E491C8142F7DB97
:1007A000AB46A81B401E0990002004F80B000B98D4
:1007B000099AC0F80880C0E9002B7AE711264FF0AB
:1007C000000857E72DE9F04F88460446D21D22F075
:1007D000070191B0D1E90001CDE90A0105F05DFC06
:1007E00002460B98C00F01D02D2007E0206881073A
:1007F00001D52B2002E0202101EAC000032A099044
:1008000001D0072A05DB03464146204600F0AAF93D
:100810000BE12078800601D5E06900E00620B8F100
:10082000650F814606D0B8F1660F18D0B8F1670F92
:1008300070D131E00020B9F1110F009001DB1123DC
:1008400001E009F101030AAA01A90CA8FFF7E2FEE1
:10085000DDE90C70002609F10105834647E001201F
:100860004B4600904FF000470AAA01A90CA8FFF7D9
:10087000D1FEDDE90DB00C995D46002610B909F1F5
:1008800001000D18B9EB050003D4C0F1FF3609F1E2
:100890000105A5EB09002BE0B9F1010F01DA4FF0DA
:1008A00001090020B9F1110F0090484601DD112324
:1008B00000E003460AAA01A90CA8FFF7ABFEDDE998
:1008C0000C704D4600268346207800070AD4AB45BD
:1008D00000DA5D4601A8012D04DD411911F8011C63
:1008E000302907D04F4502DA17F1040F04DA01204E
:1008F00082460FE06D1EEEE7002F02DCED1B3E444A
:1009000003E0781CA84200DD7D1CB81B00F1010A41
:100910004FF000472078000703D4AA4501DB4FF0D1
:10092000FF3A0021B7F1004F0DF143088DF8431055
:1009300024D002202B23002F01DA7F422D230A210D
:10094000021EA0F1010000DC5FB197FBF1FC97FBF8
:10095000F1F201FB1C7C17460CF1300C08F801CDBC
:10096000EEE7A8F1010003702188090501D54521B2
:1009700000E06521A0F1010800F8011C09980FA909
:10098000A1EB0807FF1D00B10120411901EBEA703E
:10099000A1693844081A401EA0612078C00602D41C
:1009A0002046AFF30080099828B1D4E9012190478F
:1009B000206A401C20622078C00622D52046AFF372
:1009C00000801EE0002E04DBB34502DD01A8805D3F
:1009D00000E03020D4E901219047206A401C2062C9
:1009E000761CAAF101005FEA000A0AD100F070F853
:1009F000C0680168405CD4E901219047206A401C2E
:100A00002062281EA5F10105DCDC07E0D4E9012104
:100A100018F8010B9047206A401C2062381EA7F18D
:100A20000107F3DC2046AFF30080032011B041E65C
:100A300001694A1C02610878704700B58FB0CDE9A2
:100A400001310021059105497944CDE90310114692
:100A50006846FFF73BFC0FB000BD0000E5FFFFFF5D
:100A60000A6802F8010B0A60704710B5203AC0F01E
:100A70000B80B1E81850203AA0E81850B1E818509F
:100A8000A0E81850BFF4F5AF5FEA027C24BFB1E8DC
:100A90001850A0E8185044BF18C918C0BDE810404D
:100AA0005FEA827C24BF51F8043B40F8043B08BF56
:100AB0007047D20728BF31F8023B48BF11F8012B1D
:100AC00028BF20F8023B48BF00F8012B7047000008
:100AD00000487047E403002030B5B0F10A024FEA45
:100AE000900E71F100034EEA817EB0EB0E0061EBD7
:100AF00091014FEA101E4EEA017E10EB0E0041EB11
:100B000011114FEA102E4EEA016E10EB0E0041EB70
:100B100011214FEA104E4EEA014E10EB0E0041EB50
:100B20001141401841F100014FEAD00040EA417004
:100B30004FEAD10110EB80054FEA810444EA90743A
:100B400044EB01046D1944EB0404521BA3414FF024
:100B5000000348BF0A3200D530BD401C41F10001FE
:100B600030BD00002DE9F0411F4604460326016810
:100B7000072A01F4006004DB08B116A505E016A5FC
:100B800003E008B115A500E015A521F010002060D4
:100B9000A069C01EA0610FB1401EA0612046AFF346
:100BA00000804FB1D4E9012138469047206A401CAB
:100BB0002062C01C206206E0206AFAE7D4E9012125
:100BC00015F8010B9047761EF8D22046AFF300804F
:100BD000BDE8F0814E414E006E616E00494E460008
:100BE000696E66002DE9F047814616468AB03548A1
:100BF00078440DC88DE80D0032487844801C03AC61
:100C00000DC884E80D0041F69B300844372190FB65
:100C1000F1F290FBF1F5A5F1800501FB12041B3CFC
:100C200002D56442012000E00020DFF898A0804651
:100C30000027FA44AAF1BE0A0EE0E0070AD03246C5
:100C4000684607EB470101230AEB810100F046FBF0
:100C50008DE8070064107F1C002CEED1194F7F44F3
:100C6000AE3F19E0E80715D007EB04100DF1180AA4
:100C700090E80E008AE80E00C068F04201D1981991
:100C800008903246012306A903A800F027FB03AB16
:100C900083E807006D10641C002DE3D14FF00103C1
:100CA00032466946B8F1000F03A802D000F001FBFC
:100CB00001E000F013FBC9E90001C9F808200AB0FF
:100CC000BDE8F0873479000000487047C403002075
:100CD0007546FFF7F9FFAE4605006946534620F01A
:100CE0000700854618B020B5FFF78EFABDE8204012
:100CF0004FF000064FF000074FF000084FF0000BD8
:100D000021F00701AC46ACE8C009ACE8C009ACE88A
:100D1000C009ACE8C0098D46704710B50446AFF372
:100D200000802046BDE81040FFF759BA4FF0013C63
:100D300050F8042B51F8043B9A4221D1A2EB0C034A
:100D4000934313EACC1317D150F8042B51F8043B0A
:100D50009A4215D1A2EB0C03934313EACC130BD1A7
:100D600050F8042B51F8043B9A4209D1A2EB0C0332
:100D7000934313EACC13DBD04FF00000704700BF61
:100D8000D01A01BAB1FA81F101F0180122FA01F08A
:100D9000CB40C1F12001DBB2C0B2C01A2CFA01F382
:100DA000D11A914311EAC311E6D1704701491820C5
:100DB000ABBEFEE72600020070475FEA400C08BFAA
:100DC00091F0000F4FEA8C234FEAC12243EA5151C0
:100DD0004FEA1C5018BF00F5F0404FEA300018BF32
:100DE00041F000415FEA6C5C00F02980BCF1FF3FFC
:100DF00008BF40F080407047130C06BF12044FF04C
:100E0000100C4FF0000C130E04BF12020CF1080C72
:100E1000130F04BF12010CF1040C930F04BF9200D6
:100E20000CF1020CD30F04BF52000CF1010C11465F
:100E30004FF00002A0F11F00A0EB0C00704711F072
:100E4000004F08BF704731F000413FF4D5AF0B0CA5
:100E500006BF09044FF0100C4FF0000C0B0E04BF3E
:100E600009020CF1080C0B0F04BF09010CF1040C72
:100E70008B0F04BF89000CF1020CCB0F04BF49009B
:100E80000CF1010CCCF12003A0EB0C0022FA03F3CF
:100E900002FA0CF241EA030100F10100704720F070
:100EA0007F4C80EA030023F07F47ACEB070303F598
:100EB0007C5300F0004003F1FF032DE980494FEA25
:100EC000154B09B44FEA144325EA0B4E24EA0348B4
:100ED0000FF2042606EB132749083E785FEA320238
:100EE00003FB0667C7F5000707FB06F64FEA543712
:100EF0004FEAD64606F1020607FB066CCCF1005C11
:100F00004FEA1C472CEA074C07FB06F40CFB06F5DE
:100F100004EB15464FEA961634BF00204FF0004010
:100F20004FEAD13706FB07FC4FEA1C4C0CFB0BF7D2
:100F3000D21B03FB0CF761EB07010CFB0EF7B0EBC8
:100F4000074072EB17420CFB08F734BFA2EB0742D5
:100F5000B2EB074261EB17414FEA0C444FEA9107AD
:100F600006FB07FC4FEA1C4C0CFB0BF7B0EBC74031
:100F700072EB573203FB0CF734BFA2EBC742B2EB64
:100F8000C74261EB57310CFB0EF7B0EBC70072EBB9
:100F900057720CFB08F734BFA2EBC702B2EBC702D3
:100FA00061EB5771039F4FEA816141EA921104EBB3
:100FB000CC044FEAD1374FEA826206FB07FC42EAD3
:100FC00090124FEA80604FEA1C4C0CFB0BF7D21BCF
:100FD00003FB0CF761EB07010CFB0EF7B0EB0740CE
:100FE00072EB17420CFB08F734BFA2EB0742B2EBDF
:100FF000074261EB17414FEA8C554FEA910704EB2A
:101000009C2406FB07FC4FEA1C4C0CFB0BF7B0EBD7
:10101000C74072EB573203FB0CF734BFA2EBC74259
:10102000B2EBC74261EB57310CFB0EF7B0EBC700D8
:1010300072EB57720CFB08F734BFA2EBC702B2EB9E
:10104000C70261EB577115EB4C254FEA816141EA0C
:1010500092114FEA82624FEAD13742EA901206FBC0
:1010600007FC44F100044FEA80604FEA1C4C0CFB83
:101070000BF7D21B03FB0CF761EB07010CFB0EF720
:10108000B0EB074072EB17420CFB08F734BFA2EB42
:101090000742B2EB074261EB174115EB1C154FEA13
:1010A000813141EA92414FEA823242EA90424FEA6C
:1010B00080304FEA0C7644F1000448EA03434EEADC
:1010C0000B484FF0000EB2EB080C71EB030724BF86
:1010D000624639464EEB0E0E4FF0000B001852419F
:1010E00049414BEB0B0BB2EB080C71EB03077BF1A7
:1010F000000B24BF624639464EEB0E0E4FF0000B3C
:101100000018524149414BEB0B0BB2EB080C71EB51
:1011100003077BF1000B24BF624639464EEB0E0EEF
:1011200051EA020718BF46F0010616EB0E7655F19C
:10113000000254F1000103D5BDE88901BDE8008833
:10114000BDE88901BDE80048B619524141EB0101F3
:10115000A3F10103704780807F7E7D7C7B7A797864
:10116000777676757473727171706F6E6E6D6C6C6C
:101170006B6A6A696868676666656464636362610E
:101180006160605F5F5E5E5D5D5C5C5B5B5A5A598F
:1011900059585857575656555555545453535252FB
:1011A0005251515050504F4F4F4E4E4D4D4D4C4C53
:1011B0004C4B4B4B4A4A4A4949494848484747479C
:1011C00047464646454545444444444343434342D9
:1011D000424242414141002B9C4630D477002BD003
:1011E0001CB54FEA370703B44FF010004FF0100161
:1011F000BAF1000F06D0BCF1000FDCBF40F00800D0
:1012000040F008014FF000000FBCBDE810400BF1AA
:10121000010BBBF1010F08BF5FEA170722BF12F1F4
:10122000010211F101014FF0004143F1000300F010
:10123000004043EA00007047F9D35708D0E746EA78
:10124000064613F1400F4FEA16461FDD13F1200F3B
:10125000DFBF16430A46002120335B42BED0C3F1F4
:10126000200746EA064602FA07F74FEA164646EA1C
:101270000706C3F1200722FA03F201FA07F721FA61
:1012800003F14FF0000342EA0702A7E746EA02062D
:1012900046EA06464FEA164646EA0106BCBF46EA5B
:1012A0000646360C4FF000034FF000024FF00001ED
:1012B00094E72DE9804C9A46934670B491E8380043
:1012C00007C831EA400C48BF34EA430C03D5FFF7A6
:1012D000E6FDFFF780FFF0BCBDE8008C2DE9804CF7
:1012E0009A46934670B491E8380007C810F0804FD2
:1012F00008BF13F0804F03D100F005F8FFF76BFF34
:10130000F0BCBDE8008C20F07F4780EA030023F0AA
:101310007F4C07EB0C03A3F57C5300F00040A3F1D6
:10132000FE0392F0000F00F0B38095F0000F00F084
:1013300077802DE901494FEA11404FEA144621EA2E
:10134000004800FB06FC24EA064708FB06F607FBFC
:1013500008F800FB07F718EB06484CEB164C4FEA71
:10136000124B18EB07484FEA15464CEB174022EAA0
:101370000B4E0BFB06FC25EA06470EFB06F607FBA9
:101380000EFE0BFB07F71EEB064E4CEB164C4FF018
:1013900000061EEB074E4CEB174B18EB0B0840F109
:1013A000000018EB0E0B58EB000840F100008F1AFC
:1013B0004FF000013CBFC943661B14BFB5EB040CE2
:1013C00000213CBFC943F61B4FEA17444EEA8E0E7C
:1013D00027EA04454FEA1C4704FB07622CEA074C46
:1013E00005FB07F70CFB05F604FB0CFC16EB0746A8
:1013F00042EB174216EB0C4642EB1C421BEB060677
:1014000058EB0202414146EA9E0601D5BDE801893A
:10141000B619524141EB0101A3F10103BDE8018975
:101420004FEA14454FEA114724EA054621EA074CE2
:1014300005FB07F406FB07F70CFB06F105FB0CFCAC
:1014400011EB074144EB17444FEA124711EB0C41F3
:1014500044EB1C4422EA074C05FB07F206FB07F7A6
:101460000CFB06F605FB0CFC16EB074642EB17429D
:1014700016EB0C4642EB1C456A1854F1000148BFBC
:101480007047B619524141EB0101A3F101037047C6
:1014900095F0000F37D04FEA11424FEA144721EA86
:1014A000024624EA074C02FB07F106FB07F70CFB98
:1014B00006F402FB0CFC14EB074441EB17414FEA26
:1014C000154714EB0C4441EB1C4125EA074C02FB89
:1014D00007F506FB07F70CFB06F602FB0CFC16EB08
:1014E000074645EB174516EB0C4645EB1C42121917
:1014F00051F1000148BF7047B619524141EB01015B
:10150000A3F1010370474FEA14454FEA114724EA5B
:10151000054621EA074C05FB07F106FB07F70CFB24
:1015200006F24FF0000605FB0CFC12EB074241EB04
:10153000174112EB0C4251EB1C4148BF7047921807
:1015400041EB0101A3F101037047000070B50446AF
:1015500000688168C943C90717D1816821F001017A
:10156000816000F059FD05460AE000BF00F054FD1F
:10157000401B022804D920688068C043C00706D0F9
:1015800020688068C043C007F0D0002070BDA06A0A
:1015900040F01000A062E06A40F00100E06201202B
:1015A00070BD0000F8B5002604460096006881680A
:1015B000C943C9072DD0816841F0010181601648F7
:1015C00016490068B0FBF1F000E0401E00900028D2
:1015D000FBD100F021FD054616E000BF00F01CFD28
:1015E000401B022810D920688068C043C0070BD078
:1015F000A06A40F01000A062E06A40F00100E062E2
:1016000084F824600120F8BD20688068C043C007CA
:10161000E4D10020F8BD00008000002040420F000F
:10162000FEE7704772B6FEE730B5B3F5804F05D0E0
:101630006FF0704140F82210002030BD8C690B68BB
:101640008D6823434C688989240144EA0524234397
:1016500043EA014150F82230014C23401943E9E7A5
:101660000000F0CF10B50A6850F8223023F00103D3
:1016700040F822308C68082C23D000234A6822438B
:10168000CC681C430B6922431A434B690E4C1A4326
:10169000CB691A430B6A1A434B6A1A438B6A1A4383
:1016A000CB6A1A430B6B1A438B6913434A6B096865
:1016B0001A4350F82130A343134340F8213000204F
:1016C00010BD4023DAE700007FFF0F0030B5D1E9FD
:1016D000003443EA04138C688D89240244EA0544EB
:1016E00023430C8A094D00EB820005EB045423438D
:1016F0000C7D6D0105EB0464896923430B4341684C
:1017000001F040410B434360002030BD0000F0FF7A
:10171000F8B500250446009590F8240001280BD068
:10172000012084F824002046FFF710FF2046FFF731
:1017300039FF060002D050E00220F8BDA06A20F474
:10174000885040F00200A062022000F003FD25490D
:101750000968B1FBF0F0400000E0401E0090002856
:10176000FBD12068816841F00801816000F054FCE1
:10177000074608E000F050FCC01B0A2803D9206887
:101780008068000715D4206880680007F2D42068BC
:10179000816841F00401816000F03EFC074612E0E0
:1017A00000F03AFCC01B0A280DD920688068400769
:1017B00009D5A06A20F0020040F01000A06284F871
:1017C00024500120F8BD206880684007E8D4A06A52
:1017D00020F0020040F00100A06284F8245030465E
:1017E000F8BD000080000020F8B50024009490F8B7
:1017F00024202546012A12D0012280F824204A689C
:101800001F23072A0DD20668776B521E02EB820255
:1018100093409F430B6893401F43776319E0022076
:10182000F8BD06680D2A0AD2376BD21F02EB82027E
:1018300093409F430B6893401F43376309E0F76A67
:101840000D3A02EB820293409F430B6893401F4383
:10185000F7620A68072306680A2A0AD3F7680A3A71
:1018600002EB420293409F438B6893401F43F76013
:1018700008E0376902EB420293409F438B68934034
:101880001F4337610A68102A01D0112A20D1124B58
:1018900002689A4217D193681B0219D4936843F4E3
:1018A000000393600968102912D10C490C4A096899
:1018B000B1FBF2F101EB8101490000E0491E00910A
:1018C0000029FBD104E0816A41F0200181620124FA
:1018D00080F824502046F8BD0024014080000020FC
:1018E00040420F000068C06C704700002DE9F041D5
:1018F00004004FF000057FD0A06A002628B9E662F8
:1019000084F82460204600F081F82046FFF71EFE90
:10191000A16AC90600D420B1A06A40F01000A062FC
:101920006AE0A16A21F4885141F00201A1623349C1
:1019300023688B42E16904D1B1F5402F01D14FF406
:101940000021277B4FF4807C41EA470261680A430B
:10195000A168614508D0012906D0002194F814E05F
:10196000BEF1010F02D00AE06146F7E7C7B1A76AEE
:1019700047F02007A762E76A47F00107E7625F6860
:1019800027F469470F435F60236899681C4F39400B
:1019900011439960A16861450BD0012909D00CE081
:1019A000DFF860E0A7690EEB47370F4347F40061AB
:1019B000E5E7218A0D05A5F580152168CB6A23F49A
:1019C00070032B43CB62216889680F4B1940914209
:1019D00008D1E662A16A21F0020141F00101A16291
:1019E000BDE8F081A06A20F0020040F01000A06283
:1019F000E06A40F00100E0620120F1E7003C0140B4
:101A0000FDF7E1FF00E0FFFFFE0E1FFF00B585B010
:101A10000021009101910291039100680E498842D2
:101A200018D10E48816941F400718161816901F426
:101A300000710491816941F0040181618069694606
:101A400000F004000490A0200090032001900448BE
:101A500000F0DCF905B000BD002401400010024098
:101A6000000801402DE9F84300270D460446009781
:101A700000F0D2FA804620688168C90508D5A06ABE
:101A800040F02000A06284F824700120BDE8F883B3
:101A90004168C90503D4C06A10F4700F2AD002202F
:101AA00000F058FB3B490968B1FBF0F62068036978
:101AB00039490B424FEA61014FEAA1121FD1C368B5
:101AC0004FEA611C13EA0C0F19D103690B4225D1AF
:101AD000C068104222D1142023E0681C0AD02DB126
:101AE00000F09AFAA0EB0800A84203D92068006829
:101AF000800725D5206800688007EED52DE00369B2
:101B00000B4202D1C168114206D0026923490A4240
:101B100006D1C068084203D1542002E0292000E029
:101B2000FC204643009816E0681C11D02DB100F04F
:101B300073FAA0EB0800A8420AD90098B04207D275
:101B4000A06A40F00400A06284F8247003209DE79E
:101B50000098401C0090B042E6D321686FF012005C
:101B60000860A06A40F40070A06220688068C0F33A
:101B7000424007280CD1207B50B9A06A20F4807025
:101B8000A062A06AC00403D4A06A40F00100A06271
:101B900000207BE780000020244992244992240001
:101BA00070B5044690F8240001280DD0012084F877
:101BB00024002046FFF7F6FC02004FF0000005D09D
:101BC00084F82400104670BD022070BDA16A40F266
:101BD0000123994341F48071A1621F4D23681F497D
:101BE000AB4218D10E6816F4702F14D0A66A46F4D2
:101BF0008016A6620E68760505D5A66A26F40056FC
:101C000046F48056A662A66AF6040AD5E66A26F06D
:101C10000606E66206E0A66A26F48016A6625E68FC
:101C2000E9E7E06284F824006FF0020018602068A1
:101C30008368C3F34243072B05D1A84208D1096842
:101C400011F4702F04D0816841F480118160B9E7EC
:101C5000816841F4A001F9E7002801400424014013
:101C600010B5044690F82400012807D0012084F81C
:101C700024002046FFF76AFC10B107E0022010BDE7
:101C8000A16A21F4885141F00101A162002184F888
:101C9000241010BD10B590F821100022022905D0A3
:101CA0000421816380F82020012010BD01680B68A9
:101CB00023F00E030B6001680B6823F001030B6037
:101CC00090F84030C46B012101FA03F3636080F89F
:101CD000211080F82020104610BD00002DE9F05F93
:101CE00090F821100024022903D0042181630124EB
:101CF00085E001680A6822F00E020A6001680A683D
:101D000022F001020A603F4E3E4FB215DFF8F4C0E8
:101D1000DFF8F090DFF8ECA0DFF8E8B0DFF8E4E0FF
:101D20000168783F13011502ACF1640CA9F1500968
:101D3000AAF13C0AABF1280BAEF1140E4FF4801857
:101D4000B14227D9B9420ED0614512D049451DD0C4
:101D5000514518D0594518D0714501D1424615E07A
:101D6000294EB14201D1012210E0274E1436B14272
:101D700001D110220AE0244E2836B14206D0224A70
:101D80003C32914201D11A4600E02A461E49091F01
:101D90000A602BE0B94213D0614517D0494522D0E3
:101DA00051451DD059451DD0714501D142461AE01B
:101DB000B14202D14FF0807215E0134EB14201D111
:101DC000012210E0104E1436B14201D110220AE077
:101DD0000D4E2836B14206D00B4A3C32914201D119
:101DE0001A4600E02A46074980394A60012180F8F6
:101DF0002110002180F82010416B01B18847204656
:101E0000BDE8F09F80000240080402402DE9F84F31
:101E1000DFF8C8910024A9F1040B23460F2709F12C
:101E2000040AABF1040ED1E00125A54006EA050243
:101E3000AA4276D1DFF8A8C14E68A6EB0C08664529
:101E40002BD00DDC032E34D005DC36B3012E19D097
:101E5000022E2FD11BE0112E16D0122E2AD119E0FE
:101E6000B8F5881F19D006DCB8F5803F15D0B8F555
:101E7000801F1FD111E0B8F5001F0ED0B8F5041F68
:101E800018D10AE0CB6815E0CB681B1D12E0CB68C7
:101E900008330FE0CB680C330CE08B682BB1012BBF
:101EA0004FF0080303D0456104E0042302E005611C
:101EB00000E00023FF2A01D8064601E000F10406F5
:101EC0004FEA840501D9A5F12005D6F8008007FA6C
:101ED00005FC28EA0C0803FA05F548EA0508C6F8E7
:101EE00000804D68ED0070D53E4DAE6946F00106AC
:101EF000AE61AD6924F0030605F0010500953A4D89
:101F000006EB050CDCF80850A607360F07FA06F8B2
:101F100025EA0805DFF8D480404503D14FF00008DA
:101F200025E052E0DFF8C880404502D14FF00108BB
:101F30001DE0DFF8C080404502D14FF0020816E0F6
:101F4000DFF8B480404502D14FF003080FE0DFF81E
:101F5000AC80404502D14FF0040808E0DFF8A080D3
:101F6000404502D14FF0050801E04FF0060808FA9D
:101F700006F848EA0508CCF808804D68D9F80060F2
:101F8000ED024D4601D5164300E096432E604D68A4
:101F9000DAF80060AD02554601D5164300E09643DD
:101FA0002E604D68DBF80060AD035D4601D5164339
:101FB00000E096432E604D68DEF80060ED03754644
:101FC00001D5164300E096432E60641C0A6816464D
:101FD000E2407FF429AFBDE8F88F0000080401401B
:101FE00000001110001002400000014000080140F4
:101FF000000C014000100140001401400018014095
:10200000001C01408068084000D0012070470AB1E0
:10201000016170470904FBE70148806870470000D0
:102020007400002002488168027811448160704782
:1020300074000020074810B5016841F010010160EC
:10204000032000F075F80F2000F006F800F024F8E7
:10205000002010BD0020024070B50D4D04464FF425
:102060007A712878B1FBF0F00A490968B1FBF0F009
:1020700000F034FC48B9102C07D200222146501E33
:1020800000F036F800206C6070BD012070BD0000CB
:1020900074000020800000200C4808B5816941F0E0
:1020A00001018161816901F001010091C16941F083
:1020B0008051C161C06900F08050009004484168BF
:1020C00021F0E06141F00071416008BD0010024064
:1020D00000000140002809DB00F01F0201219140AF
:1020E0004009800000F1E020C0F8001170470000B6
:1020F000F0B40E4B1B680C46C3F30223C3F1070573
:10210000042D00D90425191D072901D2002300E060
:10211000DB1E012606FA05F1491E214099409E402A
:10212000761E16403143F0BC03F0CBBF0CED00E04F
:10213000064900F0070208684FF6FF03184040EA1E
:102140000220034A10430860704700000CED00E0D5
:102150000000FA0510B501460020284C04292FD0B4
:102160000BDC012930D0022929D100F06BF961681C
:10217000C1F38131491C49001FE0082920D01029F2
:102180001DD161682268D20119D51D48C1F383426F
:10219000C903805C0AD56168194AC1F34041921EA7
:1021A000515C184AB2FBF1F1484301E0164948433B
:1021B0006168490203D440000321B0FBF1F010BD77
:1021C000BDE8104000F04EB9226AC2F30121012996
:1021D00003D1920701D5C80310BD022905D1626A57
:1021E000920702D549F6404010BD0329FCD1216871
:1021F0008903F9D54FF2244010BD000000100240C1
:10220000C26C000800127A0000093D002DE9F84375
:1022100005460078354CC00754D0E0690026C00060
:1022200008D4E06940F08050E061E069012600F0E8
:10223000805000902E480168C90512D4016880467C
:1022400041F480710160FFF7E7FE074605E000BF3B
:10225000FFF7E2FEC01B642823D8D8F80000C005B1
:10226000F6D5206A10F4407021D0A98801F440719D
:1022700081421CD0206A1F49012220F440700A606C
:1022800000220A602062C00711D0FFF7C5FE074692
:1022900041F2883808E000BFFFF7BEFEC11B414590
:1022A00002D90320BDE8F883206A8007F4D5206AAC
:1022B000696820F44070084320621EB1E06920F094
:1022C0008050E0612878800705D56068A96820F40F
:1022D0004040084360602878C00605D56068696999
:1022E00020F48000084360600020DBE7001002401B
:1022F00000700040400442422DE9F0470F460500BF
:1023000061D0434E306800F00700B84209D230680F
:1023100020F0070038433060306800F00700B84212
:1023200051D128683B4C810712D5400703D560681E
:1023300040F4E06060602878000703D5606840F4EE
:10234000605060606068A96820F0F0000843606039
:102350002878C00728D06868012810D02168022892
:1023600010D0890700292EDA616821F003010143AA
:102370006160FFF751FE804641F288390DE0216827
:102380008903EFE78901EDE7FFF746FEA0EB0801BF
:10239000494502D90320BDE8F0876068696800F00C
:1023A0000C00B0EB810FEFD1306800F00700B842AD
:1023B0000BD9306820F0070038433060306800F0F7
:1023C0000700B84201D00120E5E72878400705D58D
:1023D0006068E96820F4E0600843606028780007DE
:1023E00006D56068296920F4605040EAC100606049
:1023F00000F038F86168084AC1F30311515CC84025
:102400000649086006480068FFF726FE0020C2E77C
:102410000020024000100240D26C00088000002022
:10242000780000200448054900684968044AC1F35F
:102430000221515CC840704780000020001002401B
:10244000E26C00080448054900684968044AC1F381
:10245000C221515CC840704780000020001002403B
:10246000E26C00080E4A51680E4801F00C03042B80
:1024700011D0082B0FD10C48C1F38343C903C05CB2
:102480000AD55168084AC1F34041921E515C054A81
:102490005043B0FBF1F070470449484370470000D7
:1024A0000010024000127A00B06C000800093D00E4
:1024B0002DE9F84F040070D02078C04DC00749D0F6
:1024C0006868C0F38100012807D06868C0F3810004
:1024D000022809D16868C00306D52868800339D569
:1024E00060680028E7D035E06068B0F5803F0BD029
:1024F00010B1B0F5A02F11D0286820F480302860EA
:10250000286820F4802002E0286840F480302860A9
:10251000606890B1FFF780FD06460AE0286840F445
:1025200080202860F0E700BFFFF776FD801B64285D
:1025300073D828688003F7D50CE0FFF76DFD0646D9
:1025400005E000BFFFF768FD801B6428F0D828680D
:102550008003F7D420789A4E80074FF001094FF09E
:10256000000839D5686810F00C0F07D06868C0F310
:102570008100022809D16868C00306D42868800752
:1025800014D52069012808D110E02069B0B1C6F83F
:102590000090FFF741FD074605E00AE1FFF73CFD2B
:1025A000C01B0228C4D828688007F7D5286861694D
:1025B00020F0F80040EAC10028600DE0C6F8008075
:1025C000FFF72AFD074604E0FFF726FDC01B02289F
:1025D00023D828688007F7D4207800072CD57948BD
:1025E000A169D9B1C0F80090FFF716FD074604E0D5
:1025F000FFF712FDC01B02280FD8686A8007F7D5C5
:1026000071484FF4FA510068B0FBF1F0009000BF40
:102610000098411E0091FAD20EE080E0C0F80080E0
:10262000FFF7FAFC074604E0FFF7F6FCC01B0228A0
:1026300075D8686A8007F7D42078400760D5E869C4
:102640000027C00008D4E86940F08050E861E869DC
:10265000012700F0805000905C480168C90513D440
:102660000168834641F480710160FFF7D5FC824622
:1026700006E000BFFFF7D0FCA0EB0A0064284ED8AC
:10268000DBF80000C005F5D5E06801280AD008B1E4
:10269000052813D0286A20F001002862286A20F05B
:1026A000040002E0286A40F001002862E06841F27C
:1026B000883B98B1FFF7B0FC82460BE0286A40F0F7
:1026C00004002862EEE700BFFFF7A6FCA0EB0A01BA
:1026D00059455AD8286A8007F6D50CE0FFF79CFCCC
:1026E000824605E0FFF798FCA0EB0A0159454CD85B
:1026F000286A8007F6D41FB1E86920F08050E861AD
:10270000E06988B36968C1F38101022944D00228D5
:10271000C6F8608004D0FFF77FFC044638E034E060
:10272000FFF77AFC074604E0FFF776FCC01B02289F
:102730002BD828688001F7D4206AB0F5803F05D1F6
:102740006868A16820F4003008436860D4E9080193
:102750000843696821F4741108436860C6F8609002
:10276000FFF75AFC044606E025E000BFFFF754FCE3
:10277000001B022809D828688001F7D51BE000BF9C
:10278000FFF74AFC001B022802D90320BDE8F88F9E
:1027900028688001F4D40EE00128F7D06868226A26
:1027A00000F48031914204D1616A00F470108842D3
:1027B00001D00120EAE70020E8E700000010024015
:1027C000000042428004424280000020007000402D
:1027D00070B515460E46040007D0A069B0F5807F9D
:1027E00003D094F8410010B107E0012070BD002033
:1027F00084F84000204600F01DF804F1080120682C
:10280000FEF730FF3146A2682068FEF75FFFD4E98B
:1028100001022946236BFEF707FFA168206850F8E4
:10282000212042F0010240F82120012084F84100DB
:10283000002070BD1F4800B5416985B041F480712A
:102840004161416901F480710491816941F0200185
:102850008161816901F020010491816941F04001A9
:102860008161816901F040010491816941F48071C5
:1028700081618069694600F4807004904CF2337085
:1028800000900220019001200290032003900A484A
:10289000FFF7BCFA4FF68070009069460748FFF7D3
:1028A000B5FA41F20100009069460548FFF7AEFA1B
:1028B00005B000BD001002400014014000180140A6
:1028C000002001404FF0E0210428086903D020F0E7
:1028D00004000861704740F00400FAE710B5401E9C
:1028E000B0F1807F01D3012010BD4FF0E024606182
:1028F0000F21601703F0E5FB0020A0610720206195
:10290000002010BD70477047F8B50168044608689C
:10291000CA684B6910F00F0F4FF0000559D003F053
:10292000010602F49077374365D0C10705D0D10581
:1029300003D5616C41F001016164410705D5D907F8
:1029400003D0616C41F002016164810705D5D907AC
:1029500003D0616C41F004016164010707D502F006
:102960002001314303D0616C41F008016164616C66
:1029700000293AD0800604D5900602D5204603F0FF
:1029800055FA20684069616CC0F38010090700D4D3
:1029900060B3204603F0FAF920684069400621D56B
:1029A0002068143050E8001F21F0400140E8001278
:1029B000002AF5D1E06BA8B16D494163E06BFFF7E8
:1029C0008DF9002811D0E06B416B01B0BDE8F040FB
:1029D000084783060FD593060DD52046BDE8F8407D
:1029E00003F024BA2046FFF78EFFF8BD2046FFF71C
:1029F0008AFF6564F8BD266B2023012E7CD1C606B4
:102A00007AD5D60678D508684868009048694FF0AE
:102A10000206400640D5E16B086840680004000CDF
:102A2000E8D0A28D8242E5D9E085886920282DD0A2
:102A300020680C3050E8001F21F4807140E800123B
:102A4000002AF5D12068143050E8001F21F0010160
:102A500040E80012002AF5D12068143050E8001F29
:102A600021F0400140E80012002AF5D184F84230FC
:102A7000256320680C3050E8001F21F0100140E869
:102A80000012002AF5D1E06BFFF704F96663A08D10
:102A9000E18D401A81B22AE0A08DE18D401A81B209
:102AA000E08D0028A6D00029A4D022680C3252E87C
:102AB000000F20F4907042E80007002FF5D1206845
:102AC000143050E8002F22F0010240E80027002FC8
:102AD000F5D184F84230256320680C3050E8002F8F
:102AE00022F0100240E80023002BF5D16663204657
:102AF000FFF708FFF8BDFFE705062BD5150629D51A
:102B000094F841002128F5D1A068B0F5805F01D18B
:102B10002069B0B1206A411C2162216800784860B8
:102B2000E08C401E0004000CE084E3D12068C16802
:102B300021F08001C1602068C16841F04001C1609E
:102B4000D8E7206A0088C0F308004860206A801C2B
:102B50002062E5E74006CDD55006CBD5CA682046B1
:102B600022F04002CA6084F8413000F013F9C1E756
:102B70007D5D000870B5040004D094F84100002584
:102B800010B106E0012070BD84F84050204600F0EE
:102B900023F8242084F841002068C16821F4005102
:102BA000C160204603F0D4F92068016921F4904106
:102BB00001612068416921F02A0141612068C168F2
:102BC00041F40051C1606564202084F8410084F81C
:102BD00042006563002070BD70B586B0002400948B
:102BE00001940294039403682E482D4E022103227F
:102BF0000515B34226D1836943F480438361836919
:102C000003F480430493836943F004038361806980
:102C1000254E00F0040004900802CDE90001039263
:102C200069463046FFF7F2F8CDE900546946304670
:102C30000294FFF7EBF8002211462520FFF758FA1F
:102C4000252028E0194EB34227D1C36943F48023DD
:102C5000C361C36903F480230493836943F00803C9
:102C600083618069CDE9005100F00800CDE90320BF
:102C70000F4D69462846FFF7C9F8E814CDE900046E
:102C8000694628460294FFF7C1F800221146272022
:102C9000FFF72EFA2720FFF71DFA06B070BD0000DF
:102CA0000038014000100240000801400048004088
:102CB000000C01402DE9F843044690F84200994683
:102CC00016460D46202802D00220BDE8F883ADB19B
:102CD000A6B100206064222184F842102063FFF72F
:102CE0009BF9A6858046E685A0684FF48057B842D8
:102CF00001D1206920B12E46002526E00120E4E71D
:102D0000002622E04346002220212046CDF80090F4
:102D100003F07AF908B10320D7E726B1A068B842DA
:102D20001BD038B108E020684068C0F3080025F8DF
:102D3000020B07E0206980B12068406800F07F0046
:102D400006F8010BE08D401EE085E08D0028D9D10A
:102D5000202084F842000020B7E720684068EFE7B1
:102D6000704790F84130202B01D00220704779B194
:102D700072B101628284C28400214164212180F801
:102D800041100068C16841F08001C16000207047B7
:102D9000012070477047FEE770B5144886B081691E
:102DA00041F004018161816901F0040104918169AC
:102DB00041F0400181618069012400F040000490ED
:102DC00003260025009402200396CDE901506946B0
:102DD0000748FFF71BF81820CDE90005CDE90246AA
:102DE00069460448FFF712F806B070BD00100240B3
:102DF00000080140001801402DE9F0410126254C52
:102E0000254F264D012818D0207878B1102128466A
:102E1000FFF7F8F898B108212846FFF7F3F870B1EA
:102E200001213846FFF7EEF8012808D01021284686
:102E3000FFF7E8F801281FD02AE02670E6E70A200D
:102E400003F060F90020207010212846FFF7DAF81F
:102E500058B108212846FFF7D5F848B10121384676
:102E6000FFF7D0F8012805D012E00120BDE8F0817D
:102E70000220FBE70320F9E708212846FFF7C2F804
:102E8000012805D101213846FFF7BCF800B92670AA
:102E90000020EBE7900000200008014000180140EE
:102EA00010B50020FFF7A8FF012807D00A2003F083
:102EB00029F9BDE810400A2003F024B9034801783D
:102EC00011B100210170F4E70121FBE700000020AF
:102ED00070B509490646002408884D8821464543B7
:102EE000204602F061FC02F085FD044801E0068006
:102EF000641CAC42FBD370BDB40300200008006C1E
:102F00002DE9F04F2B492C260A46887192884FF400
:102F1000305A4FF4285B4FF4487541F6631E2B2757
:102F20004FF02A0C4FF0F00845F210594FF4A074FE
:102F30004FF4F073B8B10C80A1F802804A4532D149
:102F4000A1F808A0A1F80AB0380288810D804B8052
:102F5000A2F5A640103801D10B804C80BDE8F04F9F
:102F6000002002F061BBA1F800804C804A4507D1E7
:102F7000A1F808A0A1F80AB04FF42C50888105E010
:102F800072450E8105D14F81A1F80CC00B804D8098
:102F900002E0A1F80AC08F81A2F5A6401038DDD169
:102FA0000C804B80DAE70E81A1F80AC072458F8150
:102FB000CCD0CDE7B40300202DE9F0419046304A53
:102FC0000D460446060A918810462F0A4089A1F54D
:102FD000AA43103B0FD0A1F5C853633B24D002F0A5
:102FE000FDFC304602F0EEFCE0B202F0EBFC908912
:102FF00002F0F4FC36E002F0F1FC304602F0E2FCB4
:103000005089401C80B202F0E9FCE0B202F0DAFC28
:10301000908902F0E3FC384602F0D4FC9089401C11
:1030200080B202F0DBFC20E0917919B91188091B0C
:10303000491E8CB202F0D2FC260A304602F0C2FCD5
:10304000E0B202F0BFFC304602F0BCFCE0B202F09D
:10305000B9FC908902F0C2FC384602F0B3FCE8B239
:1030600002F0B0FC384602F0ADFCE8B202F0AAFC77
:10307000044910890880891CA1F80080BDE8F0810E
:10308000B4030020FE07006C2DE9F04FFE4895B018
:10309000816941F008018161806910A900F0080090
:1030A0000790012010901190129003201390F74880
:1030B000FEF7ACFEF6484FF0204106220160F549CC
:1030C000C0E9011200211023C160C0E9041381612D
:1030D0001B02C161C0E909139B00C0E90B134163E6
:1030E00081631A20CDE90A1009920F910320039100
:1030F0008DE8070006916A4609A9E548FFF768FBD5
:10310000322002F0FFFFD32002F068FC02F05CFAEC
:10311000DF4C4834A08002F057FA2146888002F044
:1031200053FA4FF6FF75214605EA0020888002F029
:103130004BFA214641F66318898847F2897608439D
:10314000214645F210398880A0F5134145F2105709
:103150004FF4704A4FF2010B413970D0042002F055
:103160003DFC02F031FAA08002F02EFAA08002F0BD
:103170002BFA05EA0020A08002F026FAA188084375
:10318000A0F50541A08052397DD0B04257D0D4205F
:1031900002F024FC02F018FAA08002F015FAA080D8
:1031A00002F012FA05EA0020A08002F00DFAA188D0
:1031B0000843A080484542D05521504602F024FCE7
:1031C000AA21584602F020FC52214FF2020002F0E0
:1031D0001BFC08214FF2030002F016FC01214FF204
:1031E000040002F011FC4FF4454002F0F7FB02F03E
:1031F000EBF905EA0020A0804CF2015002F0EEFB52
:1032000002F0E2F9A1880843A080322002F07AFFA0
:10321000A088B84213D0A12002F0E0FB02F0D4F95C
:10322000A08002F0D1F905EA0020A08002F0CCF9DC
:10323000A1880843A0F5AE41A08061397ED0A08866
:10324000A0F5134141397AD0B04279D1112002F072
:10325000C5FB782002F056FF362002F0BFFB0020AD
:1032600002F0B0FB3A2002F0B9FB052002F0AAFB05
:10327000B22002F0B3FB0C2002F0A4FB0C2002F001
:10328000A1FB002000E0B9E002F09CFB332002F03B
:1032900099FB332002F096FBB72002F09FFB35200C
:1032A00002F090FBBB2002F099FB322002F08AFB77
:1032B000C02002F093FB0C2002F084FBC22002F03D
:1032C0008DFB012002F07EFBC32002F087FB102063
:1032D00002F078FBC42002F081FB202002F072FB98
:1032E000C62002F07BFB0F2002F06CFBD02002F026
:1032F00075FBA42002F066FBA12002F063FBE02036
:1033000002F06CFBD02002F05DFB002002F05AFBC3
:10331000022002F057FB072002F054FB0A2002F0C3
:1033200051FB282002F04EFB322002F04BFB4420E0
:1033300002F048FB422002F045FB02E060E063E05F
:103340007DE1062002F03EFB0E2002F03BFB122046
:1033500002F038FB142002F035FB172002F032FB9C
:10336000E12002F03BFBD02002F02CFB002002F019
:1033700029FB022002F026FB072002F023FB0A2093
:1033800002F020FB282002F01DFB312002F01AFB86
:10339000542002F017FB472002F014FB0E2002F02D
:1033A00011FB1C2002F00EFB172002F00BFB1B2070
:1033B00002F008FB1E2002F005FB2A2002F00EFBA3
:1033C000002002F0FFFA002002F0FCFA002002F0D8
:1033D000F9FAEF2002F0F6FA2B2002F0FFFA0020B3
:1033E00002F0F0FA002002F0EDFA012002F0EAFA11
:1033F0003F2002F0E7FA292002F01AB8A68025E75C
:10340000A4F8048002F019B8CF2002F0E7FA0020F7
:1034100002F0D8FAC12002F0D5FA302002F0D2FA38
:10342000ED2002F0DBFA642002F0CCFA032002F077
:10343000C9FA122002F0C6FA812002F0C3FAE8208D
:1034400002F0CCFA852002F0BDFA102002F0BAFAA0
:103450007A2002F0B7FACB2002F0C0FA392002F04D
:10346000B1FA2C2002F0AEFA002002F0ABFA3420C0
:1034700002F0A8FA022002F0A5FAF72002F0AEFA54
:10348000202002F09FFA07E000100240000C0140EB
:103490006C030020040100A0EA2002F09FFA002043
:1034A00002F090FA002002F08DFAC02002F096FAA5
:1034B0001B2002F087FAC12002F090FA012002F0EE
:1034C00081FAC52002F08AFA302002F07BFA30201F
:1034D00002F078FAC72002F081FAB72002F072FAFF
:1034E000362002F07BFA482002F06CFA3A2002F013
:1034F00075FA552002F066FAB12002F06FFA00204A
:1035000002F060FA1A2002F05DFAB62002F066FAC4
:103510000A2002F057FAA22002F054FAF22002F038
:103520005DFA002002F04EFA262002F057FA012040
:1035300002F048FAE02002F051FA0F2002F042FABD
:103540002A2002F03FFA282002F03CFA082002F07C
:1035500039FA0E2002F036FA082002F033FA54202D
:1035600002F030FAA92002F02DFA432002F02AFAE4
:103570000A2002F027FA0F2002F024FA002002F0BD
:1035800021FA002002F01EFA002002F01BFA0020AF
:1035900002F018FAE12002F021FA002002F012FAFB
:1035A000152002F00FFA172002F00CFA072002F0A3
:1035B00009FA112002F006FA062002F003FA2B2085
:1035C00002F000FA562002F0FDF93C2002F0FAF970
:1035D000052002F0F7F9102002F0F4F90F2002F0B4
:1035E000F1F93F2002F0EEF93F2002F0EBF90F2055
:1035F00002F0E8F92B2002F0F1F9002002F0E2F9E4
:10360000002002F0DFF9012002F0DCF93F2002F097
:10361000D9F92A2002F0E2F9002002F0D3F90020C3
:1036200002F0D0F9002002F0CDF9EF2002F0CAF943
:10363000112002F0D3F9782002F064FDDBE6484562
:103640007ED1ED2002F0CAF9012002F0BBF9FE2084
:1036500002F0B8F9EE2002F0C1F9DE2002F0B2F972
:10366000212002F0AFF9F12002F0B8F9012002F0B8
:10367000A9F9DF2002F0B2F9102002F0A3F9C4206A
:1036800002F0ACF98F2002F09DF9C62002F0A6F9F5
:10369000002002F097F9E22002F094F9E22002F013
:1036A00091F9E22002F08EF9BF2002F097F9AA20EA
:1036B00002F088F9B02002F091F90D2002F082F9B1
:1036C000002002F07FF90D2002F07CF9002002F0CA
:1036D00079F9112002F076F9002002F073F919202F
:1036E00002F070F9002002F06DF9212002F06AF971
:1036F000002002F067F92D2002F064F9002002F0AA
:1037000061F93D2002F05EF9002002F05BF95D20D6
:1037100002F058F9002002F055F95D2002F052F94C
:10372000002002F04FF9B12002F058F9802002F099
:1037300049F9002002F046F98B2002F043F900E03D
:10374000FDE3002002F03EF9962002F03BF9002054
:1037500002F038F9B22002F041F9002002F032F90B
:10376000002002F02FF9022002F02CF9002002F0D4
:1037700029F9032002F026F9002002F023F9B320F2
:1037800002F02CF9002002F01DF9002002F01AF9D5
:10379000002002F017F9002002F014F9002002F0D6
:1037A00011F9002002F00EF9002002F00BF90020C0
:1037B00002F008F9002002F005F9002002F002F9F9
:1037C000002002F0FFF8002002F0FCF8002002F0D8
:1037D000F9F8002002F0F6F8002002F0F3F80020DB
:1037E00002F0F0F8002002F0EDF8002002F0EAF814
:1037F000002002F0E7F8002002F0E4F8002002F0D8
:10380000E1F8002002F0DEF8002002F0DBF80020F2
:1038100002F0D8F8B42002F0E1F88B2002F0D2F8E0
:10382000002002F0CFF8962002F0CCF8002002F041
:10383000C9F8A12002F0C6F8002002F0C3F8B520B4
:1038400002F0CCF8022002F0BDF8002002F0BAF835
:10385000032002F0B7F8002002F0B4F8042002F0D0
:10386000B1F8002002F0AEF8B62002F0B7F8002060
:1038700002F0A8F8002002F0A5F8B72002F0AEF898
:10388000002002F09FF8002002F09CF83F2002F098
:1038900099F8002002F096F85E2002F093F80020DC
:1038A00002F090F8642002F08DF8002002F08AF80F
:1038B0008C2002F087F8002002F084F8AC2002F09F
:1038C00081F8002002F07EF8DC2002F07BF8002076
:1038D00002F078F8702002F075F8002002F072F81B
:1038E000902002F06FF8002002F06CF8EB2002F05C
:1038F00069F8002002F066F8DC2002F063F800208E
:1039000002F060F8B82002F069F8002002F05AF8DE
:10391000002002F057F8002002F054F8002002F0D6
:1039200051F8002002F04EF8002002F04BF8002081
:1039300002F048F8002002F045F8BA2002F04EF8F4
:10394000242002F03FF8002002F03CF8002002F0B2
:1039500039F8002002F036F8C12002F03FF82020AC
:1039600002F030F8002002F02DF8542002F02AF87E
:10397000002002F027F8FF2002F024F8002002F0D7
:1039800021F8C22002F02AF80A2002F01BF80020D9
:1039900002F018F8042002F015F8002002F012F8E6
:1039A000C32002F01BF83C2002F00CF8002002F0CB
:1039B00009F83A2002F006F8002002F003F8392056
:1039C00002F000F8002001F0FDFF372001F0FAFFBF
:1039D000002001F0F7FF3C2001F0F4FF002001F08F
:1039E000F1FF362001F0EEFF002001F0EBFF322066
:1039F00001F0E8FF002001F0E5FF2F2001F0E2FFD9
:103A0000002001F0DFFF2C2001F0DCFF002001F09E
:103A1000D9FF292001F0D6FF002001F0D3FF262096
:103A200001F0D0FF002001F0CDFF242001F0CAFFFB
:103A3000002001F0C7FF242001F0C4FF002001F0A6
:103A4000C1FF232001F0BEFF002001F0BBFF3C209E
:103A500001F0B8FF002001F0B5FF362001F0B2FF01
:103A6000002001F0AFFF322001F0ACFF002001F098
:103A7000A9FF2F2001F0A6FF002001F0A3FF2C20BA
:103A800001F0A0FF002001F09DFF292001F09AFF26
:103A9000002001F097FF262001F094FF002001F0A4
:103AA00091FF242001F08EFF002001F08BFF2420E5
:103AB00001F088FF002001F085FF232001F082FF44
:103AC000002001F07FFFC42001F088FF622001F098
:103AD00079FF002001F076FF052001F073FF002040
:103AE00001F070FF842001F06DFF002001F06AFFFB
:103AF000F02001F067FF002001F064FF182001F0C2
:103B000061FF002001F05EFFA42001F05BFF0020B8
:103B100001F058FF182001F055FF002001F052FF7E
:103B2000502001F04FFF002001F04CFF0C2001F06D
:103B300049FF002001F046FF172001F043FF00205D
:103B400001F040FF952001F03DFF002001F03AFF19
:103B5000F32001F037FF002001F034FFE62001F0F0
:103B600031FF002001F02EFFC52001F037FF322089
:103B700001F028FF002001F025FF442001F022FF82
:103B8000002001F01FFF652001F01CFF002001F064
:103B900019FF762001F016FF002001F013FF8820A6
:103BA00001F010FF002001F00DFFC62001F016FF0C
:103BB000202001F007FF002001F004FF172001F092
:103BC00001FF002001F0FEFE012001F0FBFE0020BD
:103BD00001F0F8FEC72001F001FF002001F0F2FE25
:103BE000002001F0EFFE002001F0ECFE002001F0CB
:103BF000E9FEC82001F0F2FE002001F0E3FE002003
:103C000001F0E0FE002001F0DDFE002001F0DAFE10
:103C1000C92001F0E3FE002001F0D4FE002001F0F5
:103C2000D1FE002001F0CEFE002001F0CBFE0020EE
:103C300001F0C8FE002001F0C5FE002001F0C2FE28
:103C4000002001F0BFFE002001F0BCFE002001F0CA
:103C5000B9FE002001F0B6FE002001F0B3FE002006
:103C600001F0B0FE002001F0ADFE002001F0AAFE40
:103C7000002001F0A7FEE02001F0B0FE162001F0C8
:103C8000A1FE002001F09EFE1C2001F09BFE002002
:103C900001F098FE212001F095FE002001F092FE37
:103CA000362001F08FFE002001F08CFE462001F04E
:103CB00089FE002001F086FE522001F083FE0020E4
:103CC00001F080FE642001F07DFE002001F07AFE0C
:103CD0007A2001F077FE002001F074FE8B2001F0C5
:103CE00071FE002001F06EFE992001F06BFE0020B5
:103CF00001F068FEA82001F065FE002001F062FEE0
:103D0000B92001F05FFE002001F05CFEC42001F04C
:103D100059FE002001F056FECA2001F053FE00209B
:103D200001F050FED22001F04DFE002001F04AFECD
:103D3000D92001F047FE002001F044FEE02001F010
:103D400041FE002001F03EFEF32001F03BFE00208A
:103D500001F038FEE12001F041FE162001F032FEB4
:103D6000002001F02FFE1C2001F02CFE002001F0AD
:103D700029FE222001F026FE002001F023FE36203D
:103D800001F020FE002001F01DFE452001F01AFE8A
:103D9000002001F017FE522001F014FE002001F077
:103DA00011FE642001F00EFE002001F00BFE7A20CF
:103DB00001F008FE002001F005FE8B2001F002FE5C
:103DC000002001F0FFFD992001F0FCFD002001F032
:103DD000F9FDA82001F0F6FD002001F0F3FDB92067
:103DE00001F0F0FD002001F0EDFDC42001F0EAFD3E
:103DF000002001F0E7FDCA2001F0E4FD002001F001
:103E0000E1FDD22001F0DEFD002001F0DBFDD82035
:103E100001F0D8FD002001F0D5FDE02001F0D2FD39
:103E2000002001F0CFFDF32001F0CCFD002001F0D7
:103E3000C9FDE22001F0D2FD052001F0C3FD002004
:103E400001F0C0FD0B2001F0BDFD002001F0BAFD26
:103E50001B2001F0B7FD002001F0B4FD342001F07B
:103E6000B1FD002001F0AEFD442001F0ABFD0020CB
:103E700001F0A8FD4F2001F0A5FD002001F0A2FDFA
:103E8000612001F09FFD002001F09CFD792001F0F0
:103E900099FD002001F096FD882001F093FD00209F
:103EA00001F090FD972001F08DFD002001F08AFDCA
:103EB000A62001F087FD002001F084FDB72001F06D
:103EC00081FD002001F07EFDC22001F07BFD00207D
:103ED00001F078FDC72001F075FD002001F072FDB2
:103EE000D12001F06FFD002001F06CFDD62001F023
:103EF00069FD002001F066FDDD2001F063FD00207A
:103F000001F060FDF32001F05DFD002001F05AFD9D
:103F1000E32001F063FD052001F054FD002001F0D5
:103F200051FD0A2001F04EFD002001F04BFD1C2048
:103F300001F048FD002001F045FD332000E0FAE2E9
:103F400001F040FD002001F03DFD442001F03AFD6C
:103F5000002001F037FD502001F034FD002001F079
:103F600031FD622001F02EFD002001F02BFD7820B4
:103F700001F028FD002001F025FD882001F022FD40
:103F8000002001F01FFD972001F01CFD002001F032
:103F900019FDA62001F016FD002001F013FDB72049
:103FA00001F010FD002001F00DFDC22001F00AFD1E
:103FB000002001F007FDC72001F004FD002001F002
:103FC00001FDD12001F0FEFC002001F0FBFCD5201A
:103FD00001F0F8FC002001F0F5FCDD2001F0F2FC1E
:103FE000002001F0EFFCF32001F0ECFC002001F0D8
:103FF000E9FCE42001F0F2FC012001F0E3FC0020E8
:1040000001F0E0FC012001F0DDFC002001F0DAFC11
:10401000022001F0D7FC002001F0D4FC2A2001F09E
:10402000D1FC002001F0CEFC3C2001F0CBFC0020B4
:1040300001F0C8FC4B2001F0C5FC002001F0C2FCDF
:104040005D2001F0BFFC002001F0BCFC742001F0F9
:10405000B9FC002001F0B6FC842001F0B3FC002084
:1040600001F0B0FC932001F0ADFC002001F0AAFCAF
:10407000A22001F0A7FC002001F0A4FCB32001F075
:10408000A1FC002001F09EFCBE2001F09BFC002062
:1040900001F098FCC42001F095FC002001F092FC96
:1040A000CD2001F08FFC002001F08CFCD32001F02A
:1040B00089FC002001F086FCDD2001F083FC00205B
:1040C00001F080FCF32001F07DFC002001F07AFC7F
:1040D000E52001F083FC002001F074FC002001F0D9
:1040E00071FC002001F06EFC002001F06BFC02204E
:1040F00001F068FC002001F065FC292001F062FC61
:10410000002001F05FFC3C2001F05CFC002001F08D
:1041100059FC4B2001F056FC002001F053FC5D20BF
:1041200001F050FC002001F04DFC742001F04AFC2D
:10413000002001F047FC842001F044FC002001F045
:1041400041FC932001F03EFC002001F03BFCA2204A
:1041500001F038FC002001F035FCB32001F032FC06
:10416000002001F02FFCBE2001F02CFC002001F00B
:1041700029FCC42001F026FC002001F023FCCD2006
:1041800001F020FC002001F01DFCD32001F01AFCFE
:10419000002001F017FCDC2001F014FC002001F0ED
:1041A00011FCF32001F00EFC002001F00BFCE620D6
:1041B00001F014FC112001F005FC002001F002FCCC
:1041C000342001F0FFFB002001F0FCFB562001F041
:1041D000F9FB002001F0F6FB762001F0F3FB002054
:1041E00001F0F0FB772001F0EDFB002001F0EAFB8D
:1041F000662001F0E7FB002001F0E4FB882001F0DD
:10420000E1FB002001F0DEFB992001F0DBFB002048
:1042100001F0D8FBBB2001F0D5FB002001F0D2FB60
:10422000992001F0CFFB002001F0CCFB662001F0CB
:10423000C9FB002001F0C6FB552001F0C3FB0020A4
:1042400001F0C0FB552001F0BDFB002001F0BAFBDE
:10425000452001F0B7FB002001F0B4FB432001F042
:10426000B1FB002001F0AEFB442001F0ABFB0020CD
:1042700001F0A8FBE72001F0B1FB322001F0A2FB26
:10428000002001F09FFB552001F09CFB002001F075
:1042900099FB762001F096FB002001F093FB66204D
:1042A00001F090FB002001F08DFB672001F08AFBFC
:1042B000002001F087FB672001F084FB002001F063
:1042C00081FB872001F07EFB002001F07BFB992021
:1042D00001F078FB002001F075FBBB2001F072FBC0
:1042E000002001F06FFB992001F06CFB002001F031
:1042F00069FB772001F066FB002001F063FB44209E
:1043000001F060FB002001F05DFB562001F05AFB3C
:10431000002001F057FB232001F054FB002001F0A6
:1043200051FB332001F04EFB002001F04BFB4520F8
:1043300001F048FB002001F045FBE82001F04EFBB6
:10434000002001F03FFB002001F03CFB992001F030
:1043500039FB002001F036FB872001F033FB002001
:1043600001F030FB882001F02DFB002001F02AFB3A
:10437000772001F027FB002001F024FB662001F0EC
:1043800021FB002001F01EFB882001F01BFB002018
:1043900001F018FBAA2001F015FB002001F012FB30
:1043A000BB2001F00FFB002001F00CFB992001F075
:1043B00009FB002001F006FB662001F003FB002052
:1043C00001F000FB552001F0FDFA002001F0FAFA9F
:1043D000552001F0F7FA002001F0F4FA442001F032
:1043E000F1FA002001F0EEFA442001F0EBFA00208F
:1043F00001F0E8FA552001F0E5FA002001F0E2FAB8
:10440000E92001F0EBFAAA2001F0DCFA002001F02B
:10441000D9FA002001F0D6FA002001F0D3FA0020EA
:1044200001F0DCFAAA2001F0CDFACF2001F0D6FA93
:10443000002001F0C7FA002001F0C4FA002001F0CA
:10444000C1FA002001F0BEFA002001F0BBFA002002
:1044500001F0B8FA002001F0B5FA002001F0B2FA3C
:10446000002001F0AFFA002001F0ACFA002001F0CA
:10447000A9FA002001F0A6FA002001F0A3FA00201A
:1044800001F0A0FA002001F09DFA002001F09AFA54
:10449000002001F097FAF02001F0A0FA002001F0CE
:1044A00091FA502001F08EFA002001F08BFA0020E2
:1044B00001F088FA002001F085FAF32001F08EFA6D
:1044C000002001F07FFAF92001F088FA062001F0BF
:1044D00079FA102001F076FA292001F073FA002011
:1044E00001F070FA3A2001F079FA552001F06AFAE9
:1044F000112001F073FA642001F004FE292001F07C
:104500006DFA352001F06AFA002001F05BFA5120C3
:1045100001F064FAFF2001F055FA532001F05EFA31
:104520002C2001F04FFA552001F058FA822001F0BA
:1045300049FA2C20FEE3B8427ED15521504601F0C5
:1045400063FAAA215B46584601F05EFA4FF2020474
:104550005221204601F058FA661C0821304601F02D
:1045600053FAA71C0121384601F04EFA0D214FF4F1
:10457000304001F049FA0D214BF2010001F044FAFC
:104580000D214BF2020001F03FFA4FF4364834217E
:10459000404601F039FA34214BF2016001F034FA5F
:1045A00034214BF2026001F02FFA4FF431490D2112
:1045B000484601F029FA4BF2011B0D21584601F043
:1045C00023FA0D214BF2021001F01EFA34214FF4B0
:1045D000374001F019FA34214BF2017001F014FA5E
:1045E00034214BF2027001F00FFA00214FF43240F7
:1045F00001F00AFA00214BF2012001F005FA002136
:104600004BF2022001F000FA24214FF4384001F06F
:10461000FBF924214BF6010001F0F6F924214BF6B9
:10462000020001F0F1F901214FF43F4001F0ECF9F3
:104630000F214FF4334000E0FEE301F0E5F90F21D4
:104640004BF2013001F0E0F90F214BF2023001F0A2
:10465000DBF934214FF4394001F0D6F934214BF61F
:10466000011001F0D1F934214BF6021001F0CCF920
:1046700008214FF4354001F0C7F908214BF20150F1
:1046800001F0C2F908214BF2025001F0BDF90321FB
:104690004FF4424001F0B8F924214FF43A4001F0C0
:1046A000B3F924214BF6012001F0AEF924214BF699
:1046B000022001F0A9F900214FF43C4001F0A4F9D7
:1046C00078214BF6014001F09FF900214BF60240A2
:1046D00001F09AF900214FF43D4001F095F978215D
:1046E0004BF6015001F090F900214BF6025001F019
:1046F0008BF900214FF43E4001F086F964214BF61E
:10470000016001F081F900214FF4514001F07CF982
:1047100033214DF2011001F077F900214DF2021022
:1047200001F072F934214DF2031001F06DF900210E
:104730004DF2041001F068F93A214DF2051001F034
:1047400063F900214DF2061001F05EF94A214DF2A5
:10475000071001F059F900214DF2081001F054F949
:104760005C214DF2091001F04FF900214DF20A10C1
:1047700001F04AF981214DF20B1001F045F90021B9
:104780004DF20C1001F040F9A6214DF20D1001F090
:104790003BF900214DF20E1001F036F9E5214DF202
:1047A0000F1001F031F901214DF2101001F02CF938
:1047B00013214DF2111001F027F901214DF21210D1
:1047C00001F022F954214DF2131001F01DF90121DD
:1047D0004DF2141001F018F982214DF2151001F07C
:1047E00013F901214DF2161001F00EF9CA214DF214
:1047F000171001F009F902214DF2181001F004F927
:1048000000214DF2191001F0FFF802214DF21A10AB
:1048100001F0FAF801214DF21B1001F0F5F8022128
:104820004DF21C1001F0F0F834214DF21D1001F092
:10483000EBF802214DF21E1001F0E6F867214DF26F
:104840001F1001F0E1F802214DF2201001F0DCF818
:1048500084214DF2211001F0D7F802214DF22210EF
:1048600001F0D2F8A4214DF2231001F0CDF802217D
:104870004DF2241001F0C8F8B7214DF2251001F0D7
:10488000C3F802214DF2261001F0BEF8CF214DF2FF
:10489000271001F0B9F802214DF2281001F0B4F808
:1048A000DE214DF2291001F0AFF802214DF22A105D
:1048B00001F0AAF8F2214DF22B1001F0A5F8022127
:1048C0004DF22C1001F0A0F8FE214DF22D1001F058
:1048D0009BF803214DF22E1001F096F810214DF2B5
:1048E0002F1001F091F803214DF2301001F08CF8F7
:1048F00033214DF2311001F087F803214DF23210CF
:1049000001F082F86D214DF2331001F07DF80021A5
:104910004FF4524001F078F833214DF2012001F0BC
:1049200073F800214DF2022001F06EF834214DF2AF
:10493000032001F069F800214DF2042001F064F831
:104940003A214DF2052001F05FF800214DF20620DA
:1049500001F05AF84A214DF2072001F055F80021E4
:104960004DF2082001F050F85C214DF2092001F0D1
:104970004BF800214DF20A2001F046F881214DF25A
:104980000B2001F041F800214DF20C2001F03CF821
:10499000A6214DF20D2001F037F800214DF20E2036
:1049A00001F032F8E5214DF20F2001F02DF8012140
:1049B0004DF2102001F028F813214DF2112001F0E2
:1049C00023F801214DF2122001F01EF854214DF27E
:1049D000132001F019F801214DF2142001F014F810
:1049E00082214DF2152001F00FF801214DF2162021
:1049F00001F00AF8CA214DF2172001F005F8022152
:104A00004DF2182001F000F800214DF2192000F0BD
:104A1000FBFF02214DF21A2000F0F6FF01214DF2BA
:104A20001B2000F0F1FF02214DF21C2000F0ECFFF2
:104A300034214DF21D2000F0E7FF02214DF21E202F
:104A400000F0E2FF67214DF21F2000F0DDFF0221A0
:104A50004DF2202000F0D8FF84214DF2212000F0FB
:104A6000D3FF02214DF2222000F0CEFFA4214DF20F
:104A7000232000F0C9FF02214DF2242000F0C4FFE2
:104A8000B7214DF2252000F0BFFF02214DF2262074
:104A900000F0BAFFCF214DF2272000F0B5FF022130
:104AA0004DF2282000F0B0FFDE214DF2292000F069
:104AB000ABFF02214DF22A2000F0A6FFF2214DF2B9
:104AC0002B2000F0A1FF02214DF22C2000F09CFFD2
:104AD000FE214DF22D2000F097FF03214DF22E20F4
:104AE00000F092FF10214DF22F2000F08DFF0321E6
:104AF0004DF2302000F088FF33214DF2312000F0DC
:104B000083FF03214DF2322000F07EFF6D214DF234
:104B1000332000F079FF00214FF4534000F074FF80
:104B200033214DF2013000F06FFF00214DF20230D1
:104B300000F06AFF34214DF2033000F065FF0021E0
:104B40004DF2043000F060FF3A214DF2053000F0E4
:104B50005BFF00214DF2063000F056FF4A214DF276
:104B6000073000F051FF00214DF2083000F04CFFFB
:104B70005C214DF2093000F047FF00214DF20A3070
:104B800000F042FF81214DF20B3000F03DFF00218B
:104B90004DF20C3000F038FFA6214DF20D3000F040
:104BA00033FF00214DF20E3000F02EFFE5214DF2D3
:104BB0000F3000F029FF01214DF2103000F024FFEA
:104BC00013214DF2113000F01FFF01214DF2123080
:104BD00000F01AFF54214DF2133000F015FF0121AF
:104BE0004DF2143000F010FF82214DF2153000F02C
:104BF0000BFF01214DF2163000F006FFCA214DF2E5
:104C0000173000F001FF02214DF2183000F0FCFED9
:104C100000214DF2193000F0F7FE02214DF21A305A
:104C200000F0F2FE01214DF21B3000F0EDFE0221FA
:104C30004DF21C3000F0E8FE34214DF21D3000F042
:104C4000E3FE02214DF21E3000F0DEFE67214DF240
:104C50001F3000F0D9FE02214DF2203000F0D4FECA
:104C600084214DF2213000F0CFFE02214DF222309E
:104C700000F0CAFEA4214DF2233000F0C5FE02214F
:104C80004DF2243000F0C0FEB7214DF2253000F087
:104C9000BBFE02214DF2263000F0B6FECF214DF2D0
:104CA000273000F0B1FE02214DF2283000F0ACFEBA
:104CB000DE214DF2293000F0A7FE02214DF22A300C
:104CC00000F0A2FEF2214DF22B3000F09DFE0221F9
:104CD0004DF22C3000F098FEFE214DF22D3000F008
:104CE00093FE03214DF22E3000F08EFE10214DF286
:104CF0002F3000F089FE03214DF2303000F084FEA9
:104D000033214DF2313000F07FFE03214DF232307D
:104D100000F07AFE6D214DF2333000F075FE002177
:104D20004FF4544000F070FE33214DF2014000F08A
:104D30006BFE00E07CE300214DF2024000F064FED7
:104D400034214DF2034000F05FFE00214DF204409B
:104D500000F05AFE3A214DF2054000F055FE0021C8
:104D60004DF2064000F050FE4A214DF2074000F09F
:104D70004BFE00214DF2084000F046FE5C214DF252
:104D8000094000F041FE00214DF20A4000F03CFED7
:104D900081214DF20B4000F037FE00214DF20C4016
:104DA00000F032FEA6214DF20D4000F02DFE002154
:104DB0004DF20E4000F028FEE5214DF20F4000F0CC
:104DC00023FE01214DF2104000F01EFE13214DF292
:104DD000114000F019FE01214DF2124000F014FEC6
:104DE00054214DF2134000F00FFE01214DF214400A
:104DF00000F00AFE82214DF2154000F005FE01216F
:104E00004DF2164000F000FECA214DF2174000F0AE
:104E1000FBFD02214DF2184000F0F6FD00214DF29D
:104E2000194000F0F1FD02214DF21A4000F0ECFDB6
:104E300001214DF21B4000E0FDE200F0E5FD022102
:104E40004DF21C4000F0E0FD34214DF21D4000F019
:104E5000DBFD02214DF21E4000F0D6FD67214DF230
:104E60001F4000F0D1FD02214DF2204000F0CCFDAA
:104E700084214DF2214000F0C7FD02214DF2224075
:104E800000F0C2FDA4214DF2234000F0BDFD02213F
:104E90004DF2244000F0B8FDB7214DF2254000F05E
:104EA000B3FD02214DF2264000F0AEFDCF214DF2C0
:104EB000274000F0A9FD02214DF2284000F0A4FD9A
:104EC000DE214DF2294000F09FFD02214DF22A40E3
:104ED00000F09AFDF2214DF22B4000F095FD0221E9
:104EE0004DF22C4000F090FDFE214DF22D4000F0DF
:104EF0008BFD03214DF22E4000F086FD10214DF276
:104F00002F4000F081FD03214DF2304000F07CFD88
:104F100033214DF2314000F077FD03214DF2324054
:104F200000F072FD6D214DF2334000F06DFD002167
:104F30004FF4554000F068FD33214DF2015000F070
:104F400063FD00214DF2025000F05EFD34214DF270
:104F5000035000F059FD00214DF2045000F054FDC3
:104F60003A214DF2055000F04FFD00214DF2065060
:104F700000F04AFD4A214DF2075000F045FD0021A6
:104F80004DF2085000F040FD5C214DF2095000F058
:104F90003BFD00214DF20A5000F036FD81214DF21B
:104FA0000B5000F031FD00214DF20C5000F02CFDB3
:104FB000A6214DF20D5000F027FD00214DF20E50BC
:104FC00000F022FDE5214DF20F5000F01DFD012102
:104FD0004DF2105000F018FD13214DF2115000F069
:104FE00013FD01214DF2125000F00EFD54214DF23F
:104FF000135000F009FD01214DF2145000F004FDA2
:1050000082214DF2155000F0FFFC01214DF21650A7
:1050100000F0FAFCCA214DF2175000F0F5FC022115
:105020004DF2185000F0F0FC00214DF2195000F044
:10503000EBFC02214DF21A5000F0E6FC01214DF28A
:105040001B5000F0E1FC02214DF21C5000F0DCFC92
:1050500034214DF21D5000F0D7FC02214DF21E50BC
:1050600000F0D2FC67214DF21F5000F0CDFC022170
:105070004DF2205000F0C8FC84214DF2215000F088
:10508000C3FC02214DF2225000F0BEFCA4214DF2DF
:10509000235000F0B9FC02214DF2245000F0B4FC82
:1050A000B7214DF2255000F0AFFC02214DF2265001
:1050B00000F0AAFCCF214DF2275000F0A5FC022100
:1050C0004DF2285000F0A0FCDE214DF2295000F0F6
:1050D0009BFC02214DF22A5000F096FCF2214DF289
:1050E0002B5000F091FC02214DF22C5000F08CFC72
:1050F000FE214DF22D5000F087FC03214DF22E5081
:1051000000F082FC10214DF22F5000F07DFC0321B5
:105110004DF2305000F078FC33214DF2315000F068
:1051200073FC03214DF2325000F06EFC6D214DF204
:10513000335000F069FC00214FF4564000F064FC4D
:1051400033214DF2016000F05FFC00214DF202605E
:1051500000F05AFC34214DF2036000F055FC0021B0
:105160004DF2046000F050FC3A214DF2056000F071
:105170004BFC00214DF2066000F046FC4A214DF246
:10518000076000F041FC00214DF2086000F03CFC9B
:105190005C214DF2096000F037FC00214DF20A60FD
:1051A00000F032FC81214DF20B6000F02DFC00215B
:1051B0004DF20C6000F028FCA6214DF20D6000F0CD
:1051C00023FC00214DF20E6000F01EFCE5214DF2A3
:1051D0000F6000F019FC01214DF2106000F014FC8A
:1051E00013214DF2116000F00FFC01214DF212600D
:1051F00000F00AFC54214DF2136000F005FC01217F
:105200004DF2146000F000FC82214DF2156000F0B8
:10521000FBFB01214DF2166000F0F6FBCA214DF2B6
:10522000176000F0F1FB02214DF2186000F0ECFB7A
:1052300000214DF2196000F0E7FB02214DF21A60E7
:1052400000F0E2FB01214DF21B6000F0DDFB0221CA
:105250004DF21C6000F0D8FB34214DF21D6000F0CF
:10526000D3FB02214DF21E6000F0CEFB67214DF210
:105270001F6000F0C9FB02214DF2206000F0C4FB6A
:1052800084214DF2216000F0BFFB02214DF222602B
:1052900000F0BAFBA4214DF2236000F0B5FB02211F
:1052A0004DF2246000F0B0FBB7214DF2256000F014
:1052B000ABFB02214DF2266000F0A6FBCF214DF2A0
:1052C000276000F0A1FB02214DF2286000F09CFB5A
:1052D000DE214DF2296000F097FB02214DF22A6099
:1052E00000F092FBF2214DF22B6000F08DFB0221C9
:1052F0004DF22C6000F088FBFE214DF22D6000F095
:1053000083FB03214DF22E6000F07EFB10214DF255
:105310002F6000F079FB03214DF2306000F074FB48
:1053200033214DF2316000F06FFB03214DF232600A
:1053300000F06AFB6D214DF2336000F065FB5521F2
:10534000504600F061FBAA21184600F05DFB522197
:10535000204600F059FB0821304600F055FB0021A3
:10536000384600F051FBCC21484600F04DFB0021AF
:10537000584600F049FB0521404600F045FB7021EE
:105380004FF4374000F040FB70214BF2017000F009
:105390003BFB01214FF4384000F036FB03214BF674
:1053A000010000F031FB03214BF6020000F02CFB62
:1053B00003214BF6030000F027FB02214FF43C4091
:1053C00000F022FB00214BF6014000F01DFB002104
:1053D0004BF6024000F018FBD0214FF4494000F09A
:1053E00013FB02214CF6011000F00EFB50214CF68D
:1053F000021000F009FB50214CF6031000F004FBF2
:1054000050214CF6041000F0FFFA00214FF45450E4
:1054100000F0FAFA55214FF4685000F0F5FA4FF415
:10542000885000F0DBFA782000F07AFE4FF4245028
:1054300000F0D4FAB9E04045FCD1E22000F0CEFA09
:105440001D2000F0BFFA022000F0BCFA042000F09A
:10545000B9FA642000F064FEE02000F0BFFA0120F9
:1054600000F0B0FA0A2000F04DFEE02000F0B6FA9D
:10547000032000F0A7FA0C2000F044FE012000F009
:10548000ADFA0A2000F03EFEE62000F0A7FA2F2039
:1054900000F098FAFF2000F095FAFF2000F092FA51
:1054A000B02000F09BFA202000F08CFA002000F0E1
:1054B00089FA032000F086FA40F21F3000F082FAE9
:1054C000012000F07FFA40F2DF1000F07BFA0020AC
:1054D00000F078FAB42000F081FA042000F072FAAB
:1054E00040F21F4000F06EFA002000F06BFA2E2010
:1054F00000F068FA002000F065FA002000F062FA7F
:10550000002000F05FFA002000F05CFAB62000F006
:1055100065FA022000F056FA4FF4037000F052FAD8
:10552000002000F04FFA172000F04CFA152000F090
:1055300049FA002000F046FA002000F043FAF0207B
:1055400000F04CFA032000F03DFA292000F046FA62
:10555000D02000F043FA002000F034FABE2000F022
:105560003DFA052000F02EFAFE2000F02BFA012073
:1055700000F028FA002000F025FA002000F022FABE
:10558000002000F01FFAB82000F028FA032000F0F5
:1055900019FA012000F016FABA2000F01FFA0120D3
:1055A00000F010FA642000F019F80020FDF7A8FCC4
:1055B00004490120C1F880012846FDF789FC15B097
:1055C000BDE8F08F00802142034808B50088ADF89F
:1055D0000000BDF8000008BD0008006C10B50246D0
:1055E000BE2000F0FBF9052000F0ECF9104601F0B8
:1055F000C6F84FF066320B4B01F0D4F801F092F888
:1056000080B200F0DFF9012000F0DCF9FF2000F0AB
:10561000D9F9002000F0D6F9BDE81040002000F0D4
:10562000D1B900006666044070B55E4C0023214687
:10563000A279898841F66316012A01D01AB10CE0DB
:10564000B14202D109E0B14207D1082805D2DFE812
:1056500000F0161812140C19100E082812D2DFE8E8
:1056600000F0110406080A0C0E1080230AE0402303
:1056700008E0C02306E0202304E0602302E0A0232A
:1056800000E0E02345F21055A94202D14FF45850F2
:1056900000E03620A1F51342413A03D0A1F5EE42D5
:1056A000893A01D143F00803194600F0ADF9A18809
:1056B000B1420AD098062088628802D5904202D36F
:1056C00003E0904201D9228060806089A94240D1E4
:1056D00000F084F9002000F075F96089401C80B268
:1056E00000F07CF9002000F06DF96089801C80B228
:1056F00000F074F92088401EC0F30F2000F062F91A
:105700006089C01C80B200F069F92078401EC0B2E8
:1057100000F058F9A08900F061F9002000F052F97A
:10572000A089401C80B200F059F9002000F04AF92D
:10573000A089801C80B200F051F96088401EC0F33F
:105740000F2000F03FF9A089C01C80B200F046F99C
:1057500021E000F043F9002000F034F9002000F0CF
:1057600031F92088401EC0F30F2000F02BF920787B
:10577000401EC0B200F026F9A08900F02FF90020E9
:1057800000F020F9002000F01DF96088401EC0F3F1
:105790000F2000F017F9A078BDE87040401EC0B29D
:1057A00000F010B9B4030020F0B53B4A0D460446A2
:1057B000060A918810462F0A4089A1F5C853633B19
:1057C00016D0A1F5AA43103B4CD000F007F93046A3
:1057D00000F0F8F8E0B200F0F5F8908900F0FEF87B
:1057E000384600F0EFF8E8B2BDE8F04000F0EAB863
:1057F000917931B300F0F2F8304600F0E3F8E0B20E
:1058000000F0E0F81088401EC0F30F2000F0DAF836
:105810001078401E5FFA80F000F0D4F8908900F014
:10582000DDF8384600F0CEF8E8B200F0CBF850884A
:10583000401EC0F30F2000F0C5F89078401EC0B2A3
:10584000D2E71188091B491E8CB200F0C7F800206E
:1058500000F0B8F8002000F0B5F8200A00F0B2F827
:10586000E0B2D9E700F0BAF8304600F0ABF8508962
:10587000401C80B200F0B2F8E0B200F0A3F89089CA
:1058800000F0ACF8384600F09DF89089401C80B2DA
:1058900000F0A4F8A7E70000B40300202DE9FF4FB3
:1058A0001D460C468A46580700D0012000EBD50063
:1058B00069084843203A00F0FF09D0B20026DFF81B
:1058C0009CB0029046E00C2D12D0102D15D0182D52
:1058D00042D10298224900EBC00000BF01EB8000DA
:1058E0004FF00008875D38060CD51E4800880DE093
:1058F00002981D4900EB4000F0E71C49029801EBBB
:105900000010EDE70D9830B916488088214682B224
:105910000098FDF751FB7806070E641CBBF80200E7
:10592000A4B2A04218D9A4EB0A00A84209D1009859
:105930005446401C80B20090BBF8001081420BD945
:1059400006E008F1010000F0FF08B8F1080FCAD323
:10595000761CF6B24E45B6D3BDE8FF8FB4030020E7
:105960004E77000888000020EA6C00085E7100088D
:105970002DE9F84F044600F0FF0910190D46DDE946
:105980000AB61FFA80F8581987B24FF0000A12E0E1
:10599000444503D305EB0B004C4685B2BD420FD204
:1059A0005B4629462046CDF800A0FFF777FF04EBC1
:1059B0005B0084B2761C3278A2F120005E28E7D921
:1059C000BDE8F88F01B5BDF80000ADF80000BDF8E6
:1059D00000000149088008BD0008006C01B5BDF851
:1059E0000000ADF80000BDF800000149088008BDC6
:1059F000FE07006C024803490089088070470000D8
:105A0000B4030020FE07006C024A1080901C018045
:105A100070470000FE07006C7CB51F4D1FA1234896
:105A2000EA68FAF703FC21481024CDE90040234638
:105A3000D22228211E20FFF79BFF1C481CA164389E
:105A4000AA68FAF7F3FB194810236438CDE900403F
:105A5000C82246211E20FFF78BFF686801F096F8E8
:105A6000024612480B4618A1C838FAF7DFFB0F4868
:105A70001023C838CDE90040C82264211E20FFF75A
:105A800077FF05F11000CDE900401023C8228221E4
:105A90001E20FFF76DFF7CBD000000206C69676869
:105AA0007420697320256C64202020006801002088
:105AB00068756D696469747920697320256C642543
:105AC000252020200000000074656D7065726174EF
:105AD00075726520697320252E3066202020000015
